{
  "contractName": "idee",
  "abi": [
    {
      "inputs": [],
      "stateMutability": "nonpayable",
      "type": "constructor"
    },
    {
      "inputs": [],
      "name": "admin",
      "outputs": [
        {
          "internalType": "address",
          "name": "",
          "type": "address"
        }
      ],
      "stateMutability": "view",
      "type": "function",
      "constant": true
    },
    {
      "inputs": [],
      "name": "bCount",
      "outputs": [
        {
          "internalType": "uint256",
          "name": "",
          "type": "uint256"
        }
      ],
      "stateMutability": "view",
      "type": "function",
      "constant": true
    },
    {
      "inputs": [
        {
          "internalType": "uint256",
          "name": "",
          "type": "uint256"
        }
      ],
      "name": "bList",
      "outputs": [
        {
          "internalType": "address",
          "name": "bId",
          "type": "address"
        },
        {
          "internalType": "string",
          "name": "name",
          "type": "string"
        },
        {
          "internalType": "string",
          "name": "website",
          "type": "string"
        },
        {
          "internalType": "uint256",
          "name": "status",
          "type": "uint256"
        }
      ],
      "stateMutability": "view",
      "type": "function",
      "constant": true
    },
    {
      "inputs": [
        {
          "internalType": "address",
          "name": "",
          "type": "address"
        }
      ],
      "name": "balance",
      "outputs": [
        {
          "internalType": "uint256",
          "name": "",
          "type": "uint256"
        }
      ],
      "stateMutability": "view",
      "type": "function",
      "constant": true
    },
    {
      "inputs": [],
      "name": "hiCount",
      "outputs": [
        {
          "internalType": "uint256",
          "name": "",
          "type": "uint256"
        }
      ],
      "stateMutability": "view",
      "type": "function",
      "constant": true
    },
    {
      "inputs": [
        {
          "internalType": "uint256",
          "name": "",
          "type": "uint256"
        }
      ],
      "name": "hiList",
      "outputs": [
        {
          "internalType": "address",
          "name": "hiId",
          "type": "address"
        },
        {
          "internalType": "string",
          "name": "name",
          "type": "string"
        },
        {
          "internalType": "string",
          "name": "website",
          "type": "string"
        },
        {
          "internalType": "uint256",
          "name": "status",
          "type": "uint256"
        }
      ],
      "stateMutability": "view",
      "type": "function",
      "constant": true
    },
    {
      "inputs": [],
      "name": "lCount",
      "outputs": [
        {
          "internalType": "uint256",
          "name": "",
          "type": "uint256"
        }
      ],
      "stateMutability": "view",
      "type": "function",
      "constant": true
    },
    {
      "inputs": [
        {
          "internalType": "address",
          "name": "",
          "type": "address"
        }
      ],
      "name": "lDetail",
      "outputs": [
        {
          "internalType": "address",
          "name": "lId",
          "type": "address"
        },
        {
          "internalType": "string",
          "name": "name",
          "type": "string"
        },
        {
          "internalType": "string",
          "name": "nationality",
          "type": "string"
        },
        {
          "internalType": "string",
          "name": "gender",
          "type": "string"
        },
        {
          "internalType": "string",
          "name": "identificationNo",
          "type": "string"
        },
        {
          "internalType": "string",
          "name": "dob",
          "type": "string"
        }
      ],
      "stateMutability": "view",
      "type": "function",
      "constant": true
    },
    {
      "inputs": [
        {
          "internalType": "uint256",
          "name": "",
          "type": "uint256"
        }
      ],
      "name": "lList",
      "outputs": [
        {
          "internalType": "address",
          "name": "lId",
          "type": "address"
        },
        {
          "internalType": "string",
          "name": "name",
          "type": "string"
        },
        {
          "internalType": "string",
          "name": "nationality",
          "type": "string"
        },
        {
          "internalType": "string",
          "name": "gender",
          "type": "string"
        },
        {
          "internalType": "string",
          "name": "identificationNo",
          "type": "string"
        },
        {
          "internalType": "string",
          "name": "dob",
          "type": "string"
        }
      ],
      "stateMutability": "view",
      "type": "function",
      "constant": true
    },
    {
      "inputs": [],
      "name": "mCount",
      "outputs": [
        {
          "internalType": "uint256",
          "name": "",
          "type": "uint256"
        }
      ],
      "stateMutability": "view",
      "type": "function",
      "constant": true
    },
    {
      "inputs": [
        {
          "internalType": "address",
          "name": "",
          "type": "address"
        }
      ],
      "name": "mDetail",
      "outputs": [
        {
          "internalType": "address",
          "name": "mId",
          "type": "address"
        },
        {
          "internalType": "string",
          "name": "name",
          "type": "string"
        },
        {
          "internalType": "string",
          "name": "nationality",
          "type": "string"
        },
        {
          "internalType": "string",
          "name": "gender",
          "type": "string"
        },
        {
          "internalType": "string",
          "name": "identificationNo",
          "type": "string"
        },
        {
          "internalType": "string",
          "name": "dob",
          "type": "string"
        }
      ],
      "stateMutability": "view",
      "type": "function",
      "constant": true
    },
    {
      "inputs": [
        {
          "internalType": "uint256",
          "name": "",
          "type": "uint256"
        }
      ],
      "name": "mList",
      "outputs": [
        {
          "internalType": "address",
          "name": "mId",
          "type": "address"
        },
        {
          "internalType": "string",
          "name": "name",
          "type": "string"
        },
        {
          "internalType": "string",
          "name": "nationality",
          "type": "string"
        },
        {
          "internalType": "string",
          "name": "gender",
          "type": "string"
        },
        {
          "internalType": "string",
          "name": "identificationNo",
          "type": "string"
        },
        {
          "internalType": "string",
          "name": "dob",
          "type": "string"
        }
      ],
      "stateMutability": "view",
      "type": "function",
      "constant": true
    },
    {
      "inputs": [
        {
          "internalType": "address",
          "name": "",
          "type": "address"
        }
      ],
      "name": "transactionCount",
      "outputs": [
        {
          "internalType": "uint256",
          "name": "",
          "type": "uint256"
        }
      ],
      "stateMutability": "view",
      "type": "function",
      "constant": true
    },
    {
      "inputs": [
        {
          "internalType": "address",
          "name": "",
          "type": "address"
        },
        {
          "internalType": "uint256",
          "name": "",
          "type": "uint256"
        }
      ],
      "name": "transactionHistory",
      "outputs": [
        {
          "internalType": "string",
          "name": "date",
          "type": "string"
        },
        {
          "internalType": "string",
          "name": "description",
          "type": "string"
        },
        {
          "internalType": "uint256",
          "name": "amount",
          "type": "uint256"
        },
        {
          "internalType": "bool",
          "name": "types",
          "type": "bool"
        }
      ],
      "stateMutability": "view",
      "type": "function",
      "constant": true
    },
    {
      "inputs": [
        {
          "internalType": "address",
          "name": "_aId",
          "type": "address"
        }
      ],
      "name": "checkAdmin",
      "outputs": [
        {
          "internalType": "bool",
          "name": "",
          "type": "bool"
        }
      ],
      "stateMutability": "view",
      "type": "function",
      "constant": true
    },
    {
      "inputs": [
        {
          "internalType": "address",
          "name": "_hiId",
          "type": "address"
        }
      ],
      "name": "checkInstitution",
      "outputs": [
        {
          "internalType": "uint256",
          "name": "",
          "type": "uint256"
        }
      ],
      "stateMutability": "view",
      "type": "function",
      "constant": true
    },
    {
      "inputs": [
        {
          "internalType": "address",
          "name": "_bId",
          "type": "address"
        }
      ],
      "name": "checkBusiness",
      "outputs": [
        {
          "internalType": "uint256",
          "name": "",
          "type": "uint256"
        }
      ],
      "stateMutability": "view",
      "type": "function",
      "constant": true
    },
    {
      "inputs": [
        {
          "internalType": "address",
          "name": "_mId",
          "type": "address"
        }
      ],
      "name": "checkMigrant",
      "outputs": [
        {
          "internalType": "bool",
          "name": "",
          "type": "bool"
        }
      ],
      "stateMutability": "view",
      "type": "function",
      "constant": true
    },
    {
      "inputs": [
        {
          "internalType": "address",
          "name": "_lId",
          "type": "address"
        }
      ],
      "name": "checkLocal",
      "outputs": [
        {
          "internalType": "bool",
          "name": "",
          "type": "bool"
        }
      ],
      "stateMutability": "view",
      "type": "function",
      "constant": true
    },
    {
      "inputs": [
        {
          "internalType": "address",
          "name": "_hiId",
          "type": "address"
        }
      ],
      "name": "institutionCount",
      "outputs": [
        {
          "internalType": "uint256",
          "name": "",
          "type": "uint256"
        }
      ],
      "stateMutability": "view",
      "type": "function",
      "constant": true
    },
    {
      "inputs": [
        {
          "internalType": "address",
          "name": "_bId",
          "type": "address"
        }
      ],
      "name": "businessCount",
      "outputs": [
        {
          "internalType": "uint256",
          "name": "",
          "type": "uint256"
        }
      ],
      "stateMutability": "view",
      "type": "function",
      "constant": true
    },
    {
      "inputs": [
        {
          "internalType": "address",
          "name": "_senderAddress",
          "type": "address"
        },
        {
          "internalType": "address",
          "name": "_receiverAddress",
          "type": "address"
        },
        {
          "internalType": "string",
          "name": "_date",
          "type": "string"
        },
        {
          "internalType": "string",
          "name": "_description",
          "type": "string"
        },
        {
          "internalType": "uint256",
          "name": "_amount",
          "type": "uint256"
        }
      ],
      "name": "createTransaction",
      "outputs": [],
      "stateMutability": "nonpayable",
      "type": "function"
    },
    {
      "inputs": [
        {
          "internalType": "address",
          "name": "_address",
          "type": "address"
        },
        {
          "internalType": "string",
          "name": "_date",
          "type": "string"
        },
        {
          "internalType": "string",
          "name": "_description",
          "type": "string"
        },
        {
          "internalType": "uint256",
          "name": "_amount",
          "type": "uint256"
        }
      ],
      "name": "sendMoney",
      "outputs": [],
      "stateMutability": "nonpayable",
      "type": "function"
    },
    {
      "inputs": [
        {
          "internalType": "address",
          "name": "_address",
          "type": "address"
        },
        {
          "internalType": "string",
          "name": "_date",
          "type": "string"
        },
        {
          "internalType": "string",
          "name": "_description",
          "type": "string"
        },
        {
          "internalType": "uint256",
          "name": "_amount",
          "type": "uint256"
        }
      ],
      "name": "withdrawMoney",
      "outputs": [],
      "stateMutability": "nonpayable",
      "type": "function"
    },
    {
      "inputs": [
        {
          "internalType": "address",
          "name": "_hiId",
          "type": "address"
        },
        {
          "internalType": "string",
          "name": "_name",
          "type": "string"
        },
        {
          "internalType": "string",
          "name": "_website",
          "type": "string"
        }
      ],
      "name": "registerHI",
      "outputs": [],
      "stateMutability": "nonpayable",
      "type": "function"
    },
    {
      "inputs": [
        {
          "internalType": "address",
          "name": "_bId",
          "type": "address"
        },
        {
          "internalType": "string",
          "name": "_name",
          "type": "string"
        },
        {
          "internalType": "string",
          "name": "_website",
          "type": "string"
        }
      ],
      "name": "registerBusiness",
      "outputs": [],
      "stateMutability": "nonpayable",
      "type": "function"
    },
    {
      "inputs": [
        {
          "internalType": "address",
          "name": "_mId",
          "type": "address"
        },
        {
          "internalType": "string",
          "name": "_name",
          "type": "string"
        },
        {
          "internalType": "string",
          "name": "_nationality",
          "type": "string"
        },
        {
          "internalType": "string",
          "name": "_gender",
          "type": "string"
        },
        {
          "internalType": "string",
          "name": "_identificationNo",
          "type": "string"
        },
        {
          "internalType": "string",
          "name": "_dob",
          "type": "string"
        }
      ],
      "name": "registerMigrant",
      "outputs": [],
      "stateMutability": "nonpayable",
      "type": "function"
    },
    {
      "inputs": [
        {
          "internalType": "address",
          "name": "_lId",
          "type": "address"
        },
        {
          "internalType": "string",
          "name": "_name",
          "type": "string"
        },
        {
          "internalType": "string",
          "name": "_nationality",
          "type": "string"
        },
        {
          "internalType": "string",
          "name": "_gender",
          "type": "string"
        },
        {
          "internalType": "string",
          "name": "_identificationNo",
          "type": "string"
        },
        {
          "internalType": "string",
          "name": "_dob",
          "type": "string"
        }
      ],
      "name": "registerLocal",
      "outputs": [],
      "stateMutability": "nonpayable",
      "type": "function"
    },
    {
      "inputs": [
        {
          "internalType": "uint256",
          "name": "_hiCount",
          "type": "uint256"
        }
      ],
      "name": "getHiList",
      "outputs": [
        {
          "internalType": "address",
          "name": "hiId",
          "type": "address"
        },
        {
          "internalType": "string",
          "name": "name",
          "type": "string"
        },
        {
          "internalType": "string",
          "name": "website",
          "type": "string"
        }
      ],
      "stateMutability": "view",
      "type": "function",
      "constant": true
    },
    {
      "inputs": [
        {
          "internalType": "uint256",
          "name": "_bCount",
          "type": "uint256"
        }
      ],
      "name": "getbList",
      "outputs": [
        {
          "internalType": "address",
          "name": "bId",
          "type": "address"
        },
        {
          "internalType": "string",
          "name": "name",
          "type": "string"
        },
        {
          "internalType": "string",
          "name": "website",
          "type": "string"
        }
      ],
      "stateMutability": "view",
      "type": "function",
      "constant": true
    },
    {
      "inputs": [
        {
          "internalType": "uint256",
          "name": "_mCount",
          "type": "uint256"
        }
      ],
      "name": "getmList",
      "outputs": [
        {
          "internalType": "address",
          "name": "mId",
          "type": "address"
        },
        {
          "internalType": "string",
          "name": "name",
          "type": "string"
        },
        {
          "internalType": "string",
          "name": "nationality",
          "type": "string"
        },
        {
          "internalType": "string",
          "name": "gender",
          "type": "string"
        },
        {
          "internalType": "string",
          "name": "identificationNo",
          "type": "string"
        },
        {
          "internalType": "string",
          "name": "dob",
          "type": "string"
        }
      ],
      "stateMutability": "view",
      "type": "function",
      "constant": true
    },
    {
      "inputs": [
        {
          "internalType": "address",
          "name": "_mId",
          "type": "address"
        }
      ],
      "name": "getmDetail",
      "outputs": [
        {
          "internalType": "address",
          "name": "mId",
          "type": "address"
        },
        {
          "internalType": "string",
          "name": "name",
          "type": "string"
        },
        {
          "internalType": "string",
          "name": "nationality",
          "type": "string"
        },
        {
          "internalType": "string",
          "name": "gender",
          "type": "string"
        },
        {
          "internalType": "string",
          "name": "identificationNo",
          "type": "string"
        },
        {
          "internalType": "string",
          "name": "dob",
          "type": "string"
        }
      ],
      "stateMutability": "view",
      "type": "function",
      "constant": true
    },
    {
      "inputs": [
        {
          "internalType": "uint256",
          "name": "_lCount",
          "type": "uint256"
        }
      ],
      "name": "getlList",
      "outputs": [
        {
          "internalType": "address",
          "name": "lId",
          "type": "address"
        },
        {
          "internalType": "string",
          "name": "name",
          "type": "string"
        },
        {
          "internalType": "string",
          "name": "nationality",
          "type": "string"
        },
        {
          "internalType": "string",
          "name": "gender",
          "type": "string"
        },
        {
          "internalType": "string",
          "name": "identificationNo",
          "type": "string"
        },
        {
          "internalType": "string",
          "name": "dob",
          "type": "string"
        }
      ],
      "stateMutability": "view",
      "type": "function",
      "constant": true
    },
    {
      "inputs": [
        {
          "internalType": "address",
          "name": "_lId",
          "type": "address"
        }
      ],
      "name": "getlDetail",
      "outputs": [
        {
          "internalType": "address",
          "name": "lId",
          "type": "address"
        },
        {
          "internalType": "string",
          "name": "name",
          "type": "string"
        },
        {
          "internalType": "string",
          "name": "nationality",
          "type": "string"
        },
        {
          "internalType": "string",
          "name": "gender",
          "type": "string"
        },
        {
          "internalType": "string",
          "name": "identificationNo",
          "type": "string"
        },
        {
          "internalType": "string",
          "name": "dob",
          "type": "string"
        }
      ],
      "stateMutability": "view",
      "type": "function",
      "constant": true
    },
    {
      "inputs": [
        {
          "internalType": "address",
          "name": "_tId",
          "type": "address"
        },
        {
          "internalType": "uint256",
          "name": "_tCount",
          "type": "uint256"
        }
      ],
      "name": "getTransaction",
      "outputs": [
        {
          "internalType": "string",
          "name": "date",
          "type": "string"
        },
        {
          "internalType": "string",
          "name": "description",
          "type": "string"
        },
        {
          "internalType": "uint256",
          "name": "amount",
          "type": "uint256"
        },
        {
          "internalType": "bool",
          "name": "types",
          "type": "bool"
        }
      ],
      "stateMutability": "view",
      "type": "function",
      "constant": true
    },
    {
      "inputs": [
        {
          "internalType": "address",
          "name": "_hiId",
          "type": "address"
        },
        {
          "internalType": "string",
          "name": "_name",
          "type": "string"
        },
        {
          "internalType": "string",
          "name": "_website",
          "type": "string"
        },
        {
          "internalType": "uint256",
          "name": "_status",
          "type": "uint256"
        }
      ],
      "name": "updateHI",
      "outputs": [],
      "stateMutability": "nonpayable",
      "type": "function"
    },
    {
      "inputs": [
        {
          "internalType": "address",
          "name": "_bId",
          "type": "address"
        },
        {
          "internalType": "string",
          "name": "_name",
          "type": "string"
        },
        {
          "internalType": "string",
          "name": "_website",
          "type": "string"
        },
        {
          "internalType": "uint256",
          "name": "_status",
          "type": "uint256"
        }
      ],
      "name": "updateBusiness",
      "outputs": [],
      "stateMutability": "nonpayable",
      "type": "function"
    }
  ],
  "bytecode": "0x6080604052336000806101000a81548173ffffffffffffffffffffffffffffffffffffffff021916908373ffffffffffffffffffffffffffffffffffffffff16021790555034801561005057600080fd5b506101f4600d60003373ffffffffffffffffffffffffffffffffffffffff1673ffffffffffffffffffffffffffffffffffffffff16815260200190815260200160002081905550614fa2806100a66000396000f3fe608060405234801561001057600080fd5b50600436106102275760003560e01c806399be337511610130578063c93b539b116100b8578063e3d670d71161007c578063e3d670d71461078e578063e51a53da146107be578063f851a440146107dc578063fad2f2f8146107fa578063fb2060851461081657610227565b8063c93b539b146106a8578063c97cd125146106dd578063d11d5a921461070d578063d3fc8d4b1461072b578063e3abc2bc1461075b57610227565b8063be402d71116100ff578063be402d71146105d3578063bfa9d25c14610606578063c1ce551e14610622578063c78bb75914610657578063c83fcfb71461067357610227565b806399be3375146105225780639e27f2b214610552578063a410cda41461056e578063a43293b4146105a057610227565b8063493aa4c7116101b35780638a834465116101825780638a834465146104695780638c8f58151461049e5780639026dee8146104ba5780639407be35146104ea57806394728f571461050657610227565b8063493aa4c7146103c75780635f8f7d2a146103e5578063708b6747146104185780637383cf181461043457610227565b8063280ac54d116101fa578063280ac54d146102df5780632b64a11b146103145780632e67dfe91461033257806331f0891014610362578063344eba161461039757610227565b80630bf96bb11461022c57806313eb9df7146102485780631cc9e8391461027857806326cf49dd146102ad575b600080fd5b610246600480360381019061024191906147fa565b610846565b005b610262600480360381019061025d9190614899565b610932565b60405161026f91906148d5565b60405180910390f35b610292600480360381019061028d9190614899565b6109e9565b6040516102a496959493929190614987565b60405180910390f35b6102c760048036038101906102c29190614a0b565b610ced565b6040516102d693929190614a38565b60405180910390f35b6102f960048036038101906102f49190614899565b610e7a565b60405161030b96959493929190614987565b60405180910390f35b61031c611302565b60405161032991906148d5565b60405180910390f35b61034c60048036038101906103479190614899565b611308565b60405161035991906148d5565b60405180910390f35b61037c60048036038101906103779190614899565b6113a9565b60405161038e96959493929190614987565b60405180910390f35b6103b160048036038101906103ac9190614899565b6116ad565b6040516103be91906148d5565b60405180910390f35b6103cf61174e565b6040516103dc91906148d5565b60405180910390f35b6103ff60048036038101906103fa9190614a0b565b611754565b60405161040f9493929190614a7d565b60405180910390f35b610432600480360381019061042d9190614ad0565b6118b4565b005b61044e60048036038101906104499190614a0b565b611aaf565b60405161046096959493929190614987565b60405180910390f35b610483600480360381019061047e9190614a0b565b611db3565b60405161049596959493929190614987565b60405180910390f35b6104b860048036038101906104b39190614b5b565b612133565b005b6104d460048036038101906104cf9190614899565b6124d4565b6040516104e19190614c29565b60405180910390f35b61050460048036038101906104ff91906147fa565b61253c565b005b610520600480360381019061051b91906147fa565b61270f565b005b61053c60048036038101906105379190614899565b6128e2565b60405161054991906148d5565b60405180910390f35b61056c600480360381019061056791906147fa565b6128fa565b005b61058860048036038101906105839190614a0b565b6129e6565b60405161059793929190614a38565b60405180910390f35b6105ba60048036038101906105b59190614c44565b612b73565b6040516105ca9493929190614c84565b60405180910390f35b6105ed60048036038101906105e89190614a0b565b612dfd565b6040516105fd9493929190614a7d565b60405180910390f35b610620600480360381019061061b9190614cd7565b612f5d565b005b61063c60048036038101906106379190614a0b565b61320d565b60405161064e96959493929190614987565b60405180910390f35b610671600480360381019061066c9190614cd7565b61358d565b005b61068d60048036038101906106889190614a0b565b61383d565b60405161069f96959493929190614987565b60405180910390f35b6106c260048036038101906106bd9190614899565b613b41565b6040516106d496959493929190614987565b60405180910390f35b6106f760048036038101906106f29190614899565b613fc9565b6040516107049190614c29565b60405180910390f35b61071561406f565b60405161072291906148d5565b60405180910390f35b61074560048036038101906107409190614899565b614075565b6040516107529190614c29565b60405180910390f35b61077560048036038101906107709190614c44565b61411b565b6040516107859493929190614c84565b60405180910390f35b6107a860048036038101906107a39190614899565b614275565b6040516107b591906148d5565b60405180910390f35b6107c661428d565b6040516107d391906148d5565b60405180910390f35b6107e4614293565b6040516107f19190614df0565b60405180910390f35b610814600480360381019061080f9190614ad0565b6142b7565b005b610830600480360381019061082b9190614899565b6144b2565b60405161083d91906148d5565b60405180910390f35b600061085185611308565b905060405180608001604052808673ffffffffffffffffffffffffffffffffffffffff168152602001858152602001848152602001838152506001600083815260200190815260200160002060008201518160000160006101000a81548173ffffffffffffffffffffffffffffffffffffffff021916908373ffffffffffffffffffffffffffffffffffffffff1602179055506020820151816001019080519060200190610900929190614569565b50604082015181600201908051906020019061091d929190614569565b50606082015181600301559050505050505050565b600080600090506000600190505b60045481116109df578373ffffffffffffffffffffffffffffffffffffffff166003600083815260200190815260200160002060000160009054906101000a900473ffffffffffffffffffffffffffffffffffffffff1673ffffffffffffffffffffffffffffffffffffffff16036109cc57600360008281526020019081526020016000206003015491505b80806109d790614e3a565b915050610940565b5080915050919050565b60066020528060005260406000206000915090508060000160009054906101000a900473ffffffffffffffffffffffffffffffffffffffff1690806001018054610a3290614eb1565b80601f0160208091040260200160405190810160405280929190818152602001828054610a5e90614eb1565b8015610aab5780601f10610a8057610100808354040283529160200191610aab565b820191906000526020600020905b815481529060010190602001808311610a8e57829003601f168201915b505050505090806002018054610ac090614eb1565b80601f0160208091040260200160405190810160405280929190818152602001828054610aec90614eb1565b8015610b395780601f10610b0e57610100808354040283529160200191610b39565b820191906000526020600020905b815481529060010190602001808311610b1c57829003601f168201915b505050505090806003018054610b4e90614eb1565b80601f0160208091040260200160405190810160405280929190818152602001828054610b7a90614eb1565b8015610bc75780601f10610b9c57610100808354040283529160200191610bc7565b820191906000526020600020905b815481529060010190602001808311610baa57829003601f168201915b505050505090806004018054610bdc90614eb1565b80601f0160208091040260200160405190810160405280929190818152602001828054610c0890614eb1565b8015610c555780601f10610c2a57610100808354040283529160200191610c55565b820191906000526020600020905b815481529060010190602001808311610c3857829003601f168201915b505050505090806005018054610c6a90614eb1565b80601f0160208091040260200160405190810160405280929190818152602001828054610c9690614eb1565b8015610ce35780601f10610cb857610100808354040283529160200191610ce3565b820191906000526020600020905b815481529060010190602001808311610cc657829003601f168201915b5050505050905086565b60006060806003600085815260200190815260200160002060000160009054906101000a900473ffffffffffffffffffffffffffffffffffffffff166003600086815260200190815260200160002060010160036000878152602001908152602001600020600201818054610d6190614eb1565b80601f0160208091040260200160405190810160405280929190818152602001828054610d8d90614eb1565b8015610dda5780601f10610daf57610100808354040283529160200191610dda565b820191906000526020600020905b815481529060010190602001808311610dbd57829003601f168201915b50505050509150808054610ded90614eb1565b80601f0160208091040260200160405190810160405280929190818152602001828054610e1990614eb1565b8015610e665780601f10610e3b57610100808354040283529160200191610e66565b820191906000526020600020905b815481529060010190602001808311610e4957829003601f168201915b505050505090509250925092509193909250565b60006060806060806060600960008873ffffffffffffffffffffffffffffffffffffffff1673ffffffffffffffffffffffffffffffffffffffff16815260200190815260200160002060000160009054906101000a900473ffffffffffffffffffffffffffffffffffffffff16600960008973ffffffffffffffffffffffffffffffffffffffff1673ffffffffffffffffffffffffffffffffffffffff168152602001908152602001600020600101600960008a73ffffffffffffffffffffffffffffffffffffffff1673ffffffffffffffffffffffffffffffffffffffff168152602001908152602001600020600201600960008b73ffffffffffffffffffffffffffffffffffffffff1673ffffffffffffffffffffffffffffffffffffffff168152602001908152602001600020600301600960008c73ffffffffffffffffffffffffffffffffffffffff1673ffffffffffffffffffffffffffffffffffffffff168152602001908152602001600020600401600960008d73ffffffffffffffffffffffffffffffffffffffff1673ffffffffffffffffffffffffffffffffffffffff16815260200190815260200160002060050184805461103d90614eb1565b80601f016020809104026020016040519081016040528092919081815260200182805461106990614eb1565b80156110b65780601f1061108b576101008083540402835291602001916110b6565b820191906000526020600020905b81548152906001019060200180831161109957829003601f168201915b505050505094508380546110c990614eb1565b80601f01602080910402602001604051908101604052809291908181526020018280546110f590614eb1565b80156111425780601f1061111757610100808354040283529160200191611142565b820191906000526020600020905b81548152906001019060200180831161112557829003601f168201915b5050505050935082805461115590614eb1565b80601f016020809104026020016040519081016040528092919081815260200182805461118190614eb1565b80156111ce5780601f106111a3576101008083540402835291602001916111ce565b820191906000526020600020905b8154815290600101906020018083116111b157829003601f168201915b505050505092508180546111e190614eb1565b80601f016020809104026020016040519081016040528092919081815260200182805461120d90614eb1565b801561125a5780601f1061122f5761010080835404028352916020019161125a565b820191906000526020600020905b81548152906001019060200180831161123d57829003601f168201915b5050505050915080805461126d90614eb1565b80601f016020809104026020016040519081016040528092919081815260200182805461129990614eb1565b80156112e65780601f106112bb576101008083540402835291602001916112e6565b820191906000526020600020905b8154815290600101906020018083116112c957829003601f168201915b5050505050905095509550955095509550955091939550919395565b60075481565b600080600090506000600190505b600254811161139f578373ffffffffffffffffffffffffffffffffffffffff166001600083815260200190815260200160002060000160009054906101000a900473ffffffffffffffffffffffffffffffffffffffff1673ffffffffffffffffffffffffffffffffffffffff160361138c578091505b808061139790614e3a565b915050611316565b5080915050919050565b60096020528060005260406000206000915090508060000160009054906101000a900473ffffffffffffffffffffffffffffffffffffffff16908060010180546113f290614eb1565b80601f016020809104026020016040519081016040528092919081815260200182805461141e90614eb1565b801561146b5780601f106114405761010080835404028352916020019161146b565b820191906000526020600020905b81548152906001019060200180831161144e57829003601f168201915b50505050509080600201805461148090614eb1565b80601f01602080910402602001604051908101604052809291908181526020018280546114ac90614eb1565b80156114f95780601f106114ce576101008083540402835291602001916114f9565b820191906000526020600020905b8154815290600101906020018083116114dc57829003601f168201915b50505050509080600301805461150e90614eb1565b80601f016020809104026020016040519081016040528092919081815260200182805461153a90614eb1565b80156115875780601f1061155c57610100808354040283529160200191611587565b820191906000526020600020905b81548152906001019060200180831161156a57829003601f168201915b50505050509080600401805461159c90614eb1565b80601f01602080910402602001604051908101604052809291908181526020018280546115c890614eb1565b80156116155780601f106115ea57610100808354040283529160200191611615565b820191906000526020600020905b8154815290600101906020018083116115f857829003601f168201915b50505050509080600501805461162a90614eb1565b80601f016020809104026020016040519081016040528092919081815260200182805461165690614eb1565b80156116a35780601f10611678576101008083540402835291602001916116a3565b820191906000526020600020905b81548152906001019060200180831161168657829003601f168201915b5050505050905086565b600080600090506000600190505b6004548111611744578373ffffffffffffffffffffffffffffffffffffffff166003600083815260200190815260200160002060000160009054906101000a900473ffffffffffffffffffffffffffffffffffffffff1673ffffffffffffffffffffffffffffffffffffffff1603611731578091505b808061173c90614e3a565b9150506116bb565b5080915050919050565b600a5481565b60016020528060005260406000206000915090508060000160009054906101000a900473ffffffffffffffffffffffffffffffffffffffff169080600101805461179d90614eb1565b80601f01602080910402602001604051908101604052809291908181526020018280546117c990614eb1565b80156118165780601f106117eb57610100808354040283529160200191611816565b820191906000526020600020905b8154815290600101906020018083116117f957829003601f168201915b50505050509080600201805461182b90614eb1565b80601f016020809104026020016040519081016040528092919081815260200182805461185790614eb1565b80156118a45780601f10611879576101008083540402835291602001916118a4565b820191906000526020600020905b81548152906001019060200180831161188757829003601f168201915b5050505050908060030154905084565b60006118bf84610932565b9050600081036119c157600460008154809291906118dc90614e3a565b919050555060405180608001604052808573ffffffffffffffffffffffffffffffffffffffff168152602001848152602001838152602001600181525060036000600454815260200190815260200160002060008201518160000160006101000a81548173ffffffffffffffffffffffffffffffffffffffff021916908373ffffffffffffffffffffffffffffffffffffffff1602179055506020820151816001019080519060200190611991929190614569565b5060408201518160020190805190602001906119ae929190614569565b5060608201518160030155905050611aa9565b60006119cc856116ad565b905060405180608001604052808673ffffffffffffffffffffffffffffffffffffffff16815260200185815260200184815260200160018152506003600083815260200190815260200160002060008201518160000160006101000a81548173ffffffffffffffffffffffffffffffffffffffff021916908373ffffffffffffffffffffffffffffffffffffffff1602179055506020820151816001019080519060200190611a7c929190614569565b506040820151816002019080519060200190611a99929190614569565b5060608201518160030155905050505b50505050565b60086020528060005260406000206000915090508060000160009054906101000a900473ffffffffffffffffffffffffffffffffffffffff1690806001018054611af890614eb1565b80601f0160208091040260200160405190810160405280929190818152602001828054611b2490614eb1565b8015611b715780601f10611b4657610100808354040283529160200191611b71565b820191906000526020600020905b815481529060010190602001808311611b5457829003601f168201915b505050505090806002018054611b8690614eb1565b80601f0160208091040260200160405190810160405280929190818152602001828054611bb290614eb1565b8015611bff5780601f10611bd457610100808354040283529160200191611bff565b820191906000526020600020905b815481529060010190602001808311611be257829003601f168201915b505050505090806003018054611c1490614eb1565b80601f0160208091040260200160405190810160405280929190818152602001828054611c4090614eb1565b8015611c8d5780601f10611c6257610100808354040283529160200191611c8d565b820191906000526020600020905b815481529060010190602001808311611c7057829003601f168201915b505050505090806004018054611ca290614eb1565b80601f0160208091040260200160405190810160405280929190818152602001828054611cce90614eb1565b8015611d1b5780601f10611cf057610100808354040283529160200191611d1b565b820191906000526020600020905b815481529060010190602001808311611cfe57829003601f168201915b505050505090806005018054611d3090614eb1565b80601f0160208091040260200160405190810160405280929190818152602001828054611d5c90614eb1565b8015611da95780601f10611d7e57610100808354040283529160200191611da9565b820191906000526020600020905b815481529060010190602001808311611d8c57829003601f168201915b5050505050905086565b600060608060608060606008600088815260200190815260200160002060000160009054906101000a900473ffffffffffffffffffffffffffffffffffffffff1660086000898152602001908152602001600020600101600860008a8152602001908152602001600020600201600860008b8152602001908152602001600020600301600860008c8152602001908152602001600020600401600860008d8152602001908152602001600020600501848054611e6e90614eb1565b80601f0160208091040260200160405190810160405280929190818152602001828054611e9a90614eb1565b8015611ee75780601f10611ebc57610100808354040283529160200191611ee7565b820191906000526020600020905b815481529060010190602001808311611eca57829003601f168201915b50505050509450838054611efa90614eb1565b80601f0160208091040260200160405190810160405280929190818152602001828054611f2690614eb1565b8015611f735780601f10611f4857610100808354040283529160200191611f73565b820191906000526020600020905b815481529060010190602001808311611f5657829003601f168201915b50505050509350828054611f8690614eb1565b80601f0160208091040260200160405190810160405280929190818152602001828054611fb290614eb1565b8015611fff5780601f10611fd457610100808354040283529160200191611fff565b820191906000526020600020905b815481529060010190602001808311611fe257829003601f168201915b5050505050925081805461201290614eb1565b80601f016020809104026020016040519081016040528092919081815260200182805461203e90614eb1565b801561208b5780601f106120605761010080835404028352916020019161208b565b820191906000526020600020905b81548152906001019060200180831161206e57829003601f168201915b5050505050915080805461209e90614eb1565b80601f01602080910402602001604051908101604052809291908181526020018280546120ca90614eb1565b80156121175780601f106120ec57610100808354040283529160200191612117565b820191906000526020600020905b8154815290600101906020018083116120fa57829003601f168201915b5050505050905095509550955095509550955091939550919395565b80600d60008773ffffffffffffffffffffffffffffffffffffffff1673ffffffffffffffffffffffffffffffffffffffff16815260200190815260200160002060008282546121829190614ee2565b9250508190555080600d60008673ffffffffffffffffffffffffffffffffffffffff1673ffffffffffffffffffffffffffffffffffffffff16815260200190815260200160002060008282546121d89190614f16565b925050819055506001600c60008773ffffffffffffffffffffffffffffffffffffffff1673ffffffffffffffffffffffffffffffffffffffff168152602001908152602001600020600082825461222f9190614f16565b925050819055506001600c60008673ffffffffffffffffffffffffffffffffffffffff1673ffffffffffffffffffffffffffffffffffffffff16815260200190815260200160002060008282546122869190614f16565b925050819055506000600c60008773ffffffffffffffffffffffffffffffffffffffff1673ffffffffffffffffffffffffffffffffffffffff1681526020019081526020016000205490506000600c60008773ffffffffffffffffffffffffffffffffffffffff1673ffffffffffffffffffffffffffffffffffffffff168152602001908152602001600020549050604051806080016040528086815260200185815260200184815260200160001515815250600b60008973ffffffffffffffffffffffffffffffffffffffff1673ffffffffffffffffffffffffffffffffffffffff168152602001908152602001600020600084815260200190815260200160002060008201518160000190805190602001906123a5929190614569565b5060208201518160010190805190602001906123c2929190614569565b506040820151816002015560608201518160030160006101000a81548160ff021916908315150217905550905050604051806080016040528086815260200185815260200184815260200160011515815250600b60008873ffffffffffffffffffffffffffffffffffffffff1673ffffffffffffffffffffffffffffffffffffffff16815260200190815260200160002060008381526020019081526020016000206000820151816000019080519060200190612480929190614569565b50602082015181600101908051906020019061249d929190614569565b506040820151816002015560608201518160030160006101000a81548160ff02191690831515021790555090505050505050505050565b600080600090508273ffffffffffffffffffffffffffffffffffffffff1660008054906101000a900473ffffffffffffffffffffffffffffffffffffffff1673ffffffffffffffffffffffffffffffffffffffff160361253357600190505b80915050919050565b80600d60008673ffffffffffffffffffffffffffffffffffffffff1673ffffffffffffffffffffffffffffffffffffffff168152602001908152602001600020600082825461258b9190614f16565b925050819055506001600c60008673ffffffffffffffffffffffffffffffffffffffff1673ffffffffffffffffffffffffffffffffffffffff16815260200190815260200160002060008282546125e29190614f16565b925050819055506000600c60008673ffffffffffffffffffffffffffffffffffffffff1673ffffffffffffffffffffffffffffffffffffffff168152602001908152602001600020549050604051806080016040528085815260200184815260200183815260200160011515815250600b60008773ffffffffffffffffffffffffffffffffffffffff1673ffffffffffffffffffffffffffffffffffffffff168152602001908152602001600020600083815260200190815260200160002060008201518160000190805190602001906126bd929190614569565b5060208201518160010190805190602001906126da929190614569565b506040820151816002015560608201518160030160006101000a81548160ff0219169083151502179055509050505050505050565b80600d60008673ffffffffffffffffffffffffffffffffffffffff1673ffffffffffffffffffffffffffffffffffffffff168152602001908152602001600020600082825461275e9190614ee2565b925050819055506001600c60008673ffffffffffffffffffffffffffffffffffffffff1673ffffffffffffffffffffffffffffffffffffffff16815260200190815260200160002060008282546127b59190614f16565b925050819055506000600c60008673ffffffffffffffffffffffffffffffffffffffff1673ffffffffffffffffffffffffffffffffffffffff168152602001908152602001600020549050604051806080016040528085815260200184815260200183815260200160001515815250600b60008773ffffffffffffffffffffffffffffffffffffffff1673ffffffffffffffffffffffffffffffffffffffff16815260200190815260200160002060008381526020019081526020016000206000820151816000019080519060200190612890929190614569565b5060208201518160010190805190602001906128ad929190614569565b506040820151816002015560608201518160030160006101000a81548160ff0219169083151502179055509050505050505050565b600c6020528060005260406000206000915090505481565b6000612905856116ad565b905060405180608001604052808673ffffffffffffffffffffffffffffffffffffffff168152602001858152602001848152602001838152506003600083815260200190815260200160002060008201518160000160006101000a81548173ffffffffffffffffffffffffffffffffffffffff021916908373ffffffffffffffffffffffffffffffffffffffff16021790555060208201518160010190805190602001906129b4929190614569565b5060408201518160020190805190602001906129d1929190614569565b50606082015181600301559050505050505050565b60006060806001600085815260200190815260200160002060000160009054906101000a900473ffffffffffffffffffffffffffffffffffffffff166001600086815260200190815260200160002060010160016000878152602001908152602001600020600201818054612a5a90614eb1565b80601f0160208091040260200160405190810160405280929190818152602001828054612a8690614eb1565b8015612ad35780601f10612aa857610100808354040283529160200191612ad3565b820191906000526020600020905b815481529060010190602001808311612ab657829003601f168201915b50505050509150808054612ae690614eb1565b80601f0160208091040260200160405190810160405280929190818152602001828054612b1290614eb1565b8015612b5f5780601f10612b3457610100808354040283529160200191612b5f565b820191906000526020600020905b815481529060010190602001808311612b4257829003601f168201915b505050505090509250925092509193909250565b606080600080600b60008773ffffffffffffffffffffffffffffffffffffffff1673ffffffffffffffffffffffffffffffffffffffff1681526020019081526020016000206000868152602001908152602001600020600001600b60008873ffffffffffffffffffffffffffffffffffffffff1673ffffffffffffffffffffffffffffffffffffffff1681526020019081526020016000206000878152602001908152602001600020600101600b60008973ffffffffffffffffffffffffffffffffffffffff1673ffffffffffffffffffffffffffffffffffffffff168152602001908152602001600020600088815260200190815260200160002060020154600b60008a73ffffffffffffffffffffffffffffffffffffffff1673ffffffffffffffffffffffffffffffffffffffff168152602001908152602001600020600089815260200190815260200160002060030160009054906101000a900460ff16838054612ce090614eb1565b80601f0160208091040260200160405190810160405280929190818152602001828054612d0c90614eb1565b8015612d595780601f10612d2e57610100808354040283529160200191612d59565b820191906000526020600020905b815481529060010190602001808311612d3c57829003601f168201915b50505050509350828054612d6c90614eb1565b80601f0160208091040260200160405190810160405280929190818152602001828054612d9890614eb1565b8015612de55780601f10612dba57610100808354040283529160200191612de5565b820191906000526020600020905b815481529060010190602001808311612dc857829003601f168201915b50505050509250935093509350935092959194509250565b60036020528060005260406000206000915090508060000160009054906101000a900473ffffffffffffffffffffffffffffffffffffffff1690806001018054612e4690614eb1565b80601f0160208091040260200160405190810160405280929190818152602001828054612e7290614eb1565b8015612ebf5780601f10612e9457610100808354040283529160200191612ebf565b820191906000526020600020905b815481529060010190602001808311612ea257829003601f168201915b505050505090806002018054612ed490614eb1565b80601f0160208091040260200160405190810160405280929190818152602001828054612f0090614eb1565b8015612f4d5780601f10612f2257610100808354040283529160200191612f4d565b820191906000526020600020905b815481529060010190602001808311612f3057829003601f168201915b5050505050908060030154905084565b60076000815480929190612f7090614e3a565b91905055506040518060c001604052808773ffffffffffffffffffffffffffffffffffffffff1681526020018681526020018581526020018481526020018381526020018281525060056000600754815260200190815260200160002060008201518160000160006101000a81548173ffffffffffffffffffffffffffffffffffffffff021916908373ffffffffffffffffffffffffffffffffffffffff1602179055506020820151816001019080519060200190613030929190614569565b50604082015181600201908051906020019061304d929190614569565b50606082015181600301908051906020019061306a929190614569565b506080820151816004019080519060200190613087929190614569565b5060a08201518160050190805190602001906130a4929190614569565b509050506040518060c001604052808773ffffffffffffffffffffffffffffffffffffffff16815260200186815260200185815260200184815260200183815260200182815250600660008873ffffffffffffffffffffffffffffffffffffffff1673ffffffffffffffffffffffffffffffffffffffff16815260200190815260200160002060008201518160000160006101000a81548173ffffffffffffffffffffffffffffffffffffffff021916908373ffffffffffffffffffffffffffffffffffffffff160217905550602082015181600101908051906020019061318d929190614569565b5060408201518160020190805190602001906131aa929190614569565b5060608201518160030190805190602001906131c7929190614569565b5060808201518160040190805190602001906131e4929190614569565b5060a0820151816005019080519060200190613201929190614569565b50905050505050505050565b600060608060608060606005600088815260200190815260200160002060000160009054906101000a900473ffffffffffffffffffffffffffffffffffffffff1660056000898152602001908152602001600020600101600560008a8152602001908152602001600020600201600560008b8152602001908152602001600020600301600560008c8152602001908152602001600020600401600560008d81526020019081526020016000206005018480546132c890614eb1565b80601f01602080910402602001604051908101604052809291908181526020018280546132f490614eb1565b80156133415780601f1061331657610100808354040283529160200191613341565b820191906000526020600020905b81548152906001019060200180831161332457829003601f168201915b5050505050945083805461335490614eb1565b80601f016020809104026020016040519081016040528092919081815260200182805461338090614eb1565b80156133cd5780601f106133a2576101008083540402835291602001916133cd565b820191906000526020600020905b8154815290600101906020018083116133b057829003601f168201915b505050505093508280546133e090614eb1565b80601f016020809104026020016040519081016040528092919081815260200182805461340c90614eb1565b80156134595780601f1061342e57610100808354040283529160200191613459565b820191906000526020600020905b81548152906001019060200180831161343c57829003601f168201915b5050505050925081805461346c90614eb1565b80601f016020809104026020016040519081016040528092919081815260200182805461349890614eb1565b80156134e55780601f106134ba576101008083540402835291602001916134e5565b820191906000526020600020905b8154815290600101906020018083116134c857829003601f168201915b505050505091508080546134f890614eb1565b80601f016020809104026020016040519081016040528092919081815260200182805461352490614eb1565b80156135715780601f1061354657610100808354040283529160200191613571565b820191906000526020600020905b81548152906001019060200180831161355457829003601f168201915b5050505050905095509550955095509550955091939550919395565b600a60008154809291906135a090614e3a565b91905055506040518060c001604052808773ffffffffffffffffffffffffffffffffffffffff1681526020018681526020018581526020018481526020018381526020018281525060086000600a54815260200190815260200160002060008201518160000160006101000a81548173ffffffffffffffffffffffffffffffffffffffff021916908373ffffffffffffffffffffffffffffffffffffffff1602179055506020820151816001019080519060200190613660929190614569565b50604082015181600201908051906020019061367d929190614569565b50606082015181600301908051906020019061369a929190614569565b5060808201518160040190805190602001906136b7929190614569565b5060a08201518160050190805190602001906136d4929190614569565b509050506040518060c001604052808773ffffffffffffffffffffffffffffffffffffffff16815260200186815260200185815260200184815260200183815260200182815250600960008873ffffffffffffffffffffffffffffffffffffffff1673ffffffffffffffffffffffffffffffffffffffff16815260200190815260200160002060008201518160000160006101000a81548173ffffffffffffffffffffffffffffffffffffffff021916908373ffffffffffffffffffffffffffffffffffffffff16021790555060208201518160010190805190602001906137bd929190614569565b5060408201518160020190805190602001906137da929190614569565b5060608201518160030190805190602001906137f7929190614569565b506080820151816004019080519060200190613814929190614569565b5060a0820151816005019080519060200190613831929190614569565b50905050505050505050565b60056020528060005260406000206000915090508060000160009054906101000a900473ffffffffffffffffffffffffffffffffffffffff169080600101805461388690614eb1565b80601f01602080910402602001604051908101604052809291908181526020018280546138b290614eb1565b80156138ff5780601f106138d4576101008083540402835291602001916138ff565b820191906000526020600020905b8154815290600101906020018083116138e257829003601f168201915b50505050509080600201805461391490614eb1565b80601f016020809104026020016040519081016040528092919081815260200182805461394090614eb1565b801561398d5780601f106139625761010080835404028352916020019161398d565b820191906000526020600020905b81548152906001019060200180831161397057829003601f168201915b5050505050908060030180546139a290614eb1565b80601f01602080910402602001604051908101604052809291908181526020018280546139ce90614eb1565b8015613a1b5780601f106139f057610100808354040283529160200191613a1b565b820191906000526020600020905b8154815290600101906020018083116139fe57829003601f168201915b505050505090806004018054613a3090614eb1565b80601f0160208091040260200160405190810160405280929190818152602001828054613a5c90614eb1565b8015613aa95780601f10613a7e57610100808354040283529160200191613aa9565b820191906000526020600020905b815481529060010190602001808311613a8c57829003601f168201915b505050505090806005018054613abe90614eb1565b80601f0160208091040260200160405190810160405280929190818152602001828054613aea90614eb1565b8015613b375780601f10613b0c57610100808354040283529160200191613b37565b820191906000526020600020905b815481529060010190602001808311613b1a57829003601f168201915b5050505050905086565b60006060806060806060600660008873ffffffffffffffffffffffffffffffffffffffff1673ffffffffffffffffffffffffffffffffffffffff16815260200190815260200160002060000160009054906101000a900473ffffffffffffffffffffffffffffffffffffffff16600660008973ffffffffffffffffffffffffffffffffffffffff1673ffffffffffffffffffffffffffffffffffffffff168152602001908152602001600020600101600660008a73ffffffffffffffffffffffffffffffffffffffff1673ffffffffffffffffffffffffffffffffffffffff168152602001908152602001600020600201600660008b73ffffffffffffffffffffffffffffffffffffffff1673ffffffffffffffffffffffffffffffffffffffff168152602001908152602001600020600301600660008c73ffffffffffffffffffffffffffffffffffffffff1673ffffffffffffffffffffffffffffffffffffffff168152602001908152602001600020600401600660008d73ffffffffffffffffffffffffffffffffffffffff1673ffffffffffffffffffffffffffffffffffffffff168152602001908152602001600020600501848054613d0490614eb1565b80601f0160208091040260200160405190810160405280929190818152602001828054613d3090614eb1565b8015613d7d5780601f10613d5257610100808354040283529160200191613d7d565b820191906000526020600020905b815481529060010190602001808311613d6057829003601f168201915b50505050509450838054613d9090614eb1565b80601f0160208091040260200160405190810160405280929190818152602001828054613dbc90614eb1565b8015613e095780601f10613dde57610100808354040283529160200191613e09565b820191906000526020600020905b815481529060010190602001808311613dec57829003601f168201915b50505050509350828054613e1c90614eb1565b80601f0160208091040260200160405190810160405280929190818152602001828054613e4890614eb1565b8015613e955780601f10613e6a57610100808354040283529160200191613e95565b820191906000526020600020905b815481529060010190602001808311613e7857829003601f168201915b50505050509250818054613ea890614eb1565b80601f0160208091040260200160405190810160405280929190818152602001828054613ed490614eb1565b8015613f215780601f10613ef657610100808354040283529160200191613f21565b820191906000526020600020905b815481529060010190602001808311613f0457829003601f168201915b50505050509150808054613f3490614eb1565b80601f0160208091040260200160405190810160405280929190818152602001828054613f6090614eb1565b8015613fad5780601f10613f8257610100808354040283529160200191613fad565b820191906000526020600020905b815481529060010190602001808311613f9057829003601f168201915b5050505050905095509550955095509550955091939550919395565b600080600090506000600190505b600a548111614065578373ffffffffffffffffffffffffffffffffffffffff166008600083815260200190815260200160002060000160009054906101000a900473ffffffffffffffffffffffffffffffffffffffff1673ffffffffffffffffffffffffffffffffffffffff16036140525760019150614065565b808061405d90614e3a565b915050613fd7565b5080915050919050565b60045481565b600080600090506000600190505b6007548111614111578373ffffffffffffffffffffffffffffffffffffffff166005600083815260200190815260200160002060000160009054906101000a900473ffffffffffffffffffffffffffffffffffffffff1673ffffffffffffffffffffffffffffffffffffffff16036140fe5760019150614111565b808061410990614e3a565b915050614083565b5080915050919050565b600b6020528160005260406000206020528060005260406000206000915091505080600001805461414b90614eb1565b80601f016020809104026020016040519081016040528092919081815260200182805461417790614eb1565b80156141c45780601f10614199576101008083540402835291602001916141c4565b820191906000526020600020905b8154815290600101906020018083116141a757829003601f168201915b5050505050908060010180546141d990614eb1565b80601f016020809104026020016040519081016040528092919081815260200182805461420590614eb1565b80156142525780601f1061422757610100808354040283529160200191614252565b820191906000526020600020905b81548152906001019060200180831161423557829003601f168201915b5050505050908060020154908060030160009054906101000a900460ff16905084565b600d6020528060005260406000206000915090505481565b60025481565b60008054906101000a900473ffffffffffffffffffffffffffffffffffffffff1681565b60006142c2846144b2565b9050600081036143c457600260008154809291906142df90614e3a565b919050555060405180608001604052808573ffffffffffffffffffffffffffffffffffffffff168152602001848152602001838152602001600181525060016000600254815260200190815260200160002060008201518160000160006101000a81548173ffffffffffffffffffffffffffffffffffffffff021916908373ffffffffffffffffffffffffffffffffffffffff1602179055506020820151816001019080519060200190614394929190614569565b5060408201518160020190805190602001906143b1929190614569565b50606082015181600301559050506144ac565b60006143cf85611308565b905060405180608001604052808673ffffffffffffffffffffffffffffffffffffffff16815260200185815260200184815260200160018152506001600083815260200190815260200160002060008201518160000160006101000a81548173ffffffffffffffffffffffffffffffffffffffff021916908373ffffffffffffffffffffffffffffffffffffffff160217905550602082015181600101908051906020019061447f929190614569565b50604082015181600201908051906020019061449c929190614569565b5060608201518160030155905050505b50505050565b600080600090506000600190505b600254811161455f578373ffffffffffffffffffffffffffffffffffffffff166001600083815260200190815260200160002060000160009054906101000a900473ffffffffffffffffffffffffffffffffffffffff1673ffffffffffffffffffffffffffffffffffffffff160361454c57600160008281526020019081526020016000206003015491505b808061455790614e3a565b9150506144c0565b5080915050919050565b82805461457590614eb1565b90600052602060002090601f01602090048101928261459757600085556145de565b82601f106145b057805160ff19168380011785556145de565b828001600101855582156145de579182015b828111156145dd5782518255916020019190600101906145c2565b5b5090506145eb91906145ef565b5090565b5b808211156146085760008160009055506001016145f0565b5090565b6000604051905090565b600080fd5b600080fd5b600073ffffffffffffffffffffffffffffffffffffffff82169050919050565b600061464b82614620565b9050919050565b61465b81614640565b811461466657600080fd5b50565b60008135905061467881614652565b92915050565b600080fd5b600080fd5b6000601f19601f8301169050919050565b7f4e487b7100000000000000000000000000000000000000000000000000000000600052604160045260246000fd5b6146d182614688565b810181811067ffffffffffffffff821117156146f0576146ef614699565b5b80604052505050565b600061470361460c565b905061470f82826146c8565b919050565b600067ffffffffffffffff82111561472f5761472e614699565b5b61473882614688565b9050602081019050919050565b82818337600083830152505050565b600061476761476284614714565b6146f9565b90508281526020810184848401111561478357614782614683565b5b61478e848285614745565b509392505050565b600082601f8301126147ab576147aa61467e565b5b81356147bb848260208601614754565b91505092915050565b6000819050919050565b6147d7816147c4565b81146147e257600080fd5b50565b6000813590506147f4816147ce565b92915050565b6000806000806080858703121561481457614813614616565b5b600061482287828801614669565b945050602085013567ffffffffffffffff8111156148435761484261461b565b5b61484f87828801614796565b935050604085013567ffffffffffffffff8111156148705761486f61461b565b5b61487c87828801614796565b925050606061488d878288016147e5565b91505092959194509250565b6000602082840312156148af576148ae614616565b5b60006148bd84828501614669565b91505092915050565b6148cf816147c4565b82525050565b60006020820190506148ea60008301846148c6565b92915050565b6148f981614640565b82525050565b600081519050919050565b600082825260208201905092915050565b60005b8381101561493957808201518184015260208101905061491e565b83811115614948576000848401525b50505050565b6000614959826148ff565b614963818561490a565b935061497381856020860161491b565b61497c81614688565b840191505092915050565b600060c08201905061499c60008301896148f0565b81810360208301526149ae818861494e565b905081810360408301526149c2818761494e565b905081810360608301526149d6818661494e565b905081810360808301526149ea818561494e565b905081810360a08301526149fe818461494e565b9050979650505050505050565b600060208284031215614a2157614a20614616565b5b6000614a2f848285016147e5565b91505092915050565b6000606082019050614a4d60008301866148f0565b8181036020830152614a5f818561494e565b90508181036040830152614a73818461494e565b9050949350505050565b6000608082019050614a9260008301876148f0565b8181036020830152614aa4818661494e565b90508181036040830152614ab8818561494e565b9050614ac760608301846148c6565b95945050505050565b600080600060608486031215614ae957614ae8614616565b5b6000614af786828701614669565b935050602084013567ffffffffffffffff811115614b1857614b1761461b565b5b614b2486828701614796565b925050604084013567ffffffffffffffff811115614b4557614b4461461b565b5b614b5186828701614796565b9150509250925092565b600080600080600060a08688031215614b7757614b76614616565b5b6000614b8588828901614669565b9550506020614b9688828901614669565b945050604086013567ffffffffffffffff811115614bb757614bb661461b565b5b614bc388828901614796565b935050606086013567ffffffffffffffff811115614be457614be361461b565b5b614bf088828901614796565b9250506080614c01888289016147e5565b9150509295509295909350565b60008115159050919050565b614c2381614c0e565b82525050565b6000602082019050614c3e6000830184614c1a565b92915050565b60008060408385031215614c5b57614c5a614616565b5b6000614c6985828601614669565b9250506020614c7a858286016147e5565b9150509250929050565b60006080820190508181036000830152614c9e818761494e565b90508181036020830152614cb2818661494e565b9050614cc160408301856148c6565b614cce6060830184614c1a565b95945050505050565b60008060008060008060c08789031215614cf457614cf3614616565b5b6000614d0289828a01614669565b965050602087013567ffffffffffffffff811115614d2357614d2261461b565b5b614d2f89828a01614796565b955050604087013567ffffffffffffffff811115614d5057614d4f61461b565b5b614d5c89828a01614796565b945050606087013567ffffffffffffffff811115614d7d57614d7c61461b565b5b614d8989828a01614796565b935050608087013567ffffffffffffffff811115614daa57614da961461b565b5b614db689828a01614796565b92505060a087013567ffffffffffffffff811115614dd757614dd661461b565b5b614de389828a01614796565b9150509295509295509295565b6000602082019050614e0560008301846148f0565b92915050565b7f4e487b7100000000000000000000000000000000000000000000000000000000600052601160045260246000fd5b6000614e45826147c4565b91507fffffffffffffffffffffffffffffffffffffffffffffffffffffffffffffffff8203614e7757614e76614e0b565b5b600182019050919050565b7f4e487b7100000000000000000000000000000000000000000000000000000000600052602260045260246000fd5b60006002820490506001821680614ec957607f821691505b602082108103614edc57614edb614e82565b5b50919050565b6000614eed826147c4565b9150614ef8836147c4565b925082821015614f0b57614f0a614e0b565b5b828203905092915050565b6000614f21826147c4565b9150614f2c836147c4565b9250827fffffffffffffffffffffffffffffffffffffffffffffffffffffffffffffffff03821115614f6157614f60614e0b565b5b82820190509291505056fea264697066735822122027f9250d7c2091b95096685e51caabe3e991c969ca893fc7c77414b667d49a1e64736f6c634300080d0033",
  "immutableReferences": {},
  "source": "pragma solidity ^0.8.13;\r\n\r\ncontract idee {\r\n    address public admin = msg.sender;\r\n\r\n    // Check if admin\r\n    function checkAdmin(address _aId) public view returns(bool) {\r\n        bool flag = false;\r\n        if (admin == _aId) {\r\n            flag = true;\r\n        }\r\n        return flag;\r\n    }\r\n\r\n    // Check if the healthcare institution exists\r\n    function checkInstitution(address _hiId) public view returns(uint){\r\n        uint flag = 0; // 0 = account not registered before\r\n        for (uint i = 1 ; i <= hiCount; i++){\r\n            if (hiList[i].hiId == _hiId) {\r\n                flag = hiList[i].status;\r\n            }\r\n        }\r\n        return flag;\r\n    }\r\n\r\n    // Check if the business exists\r\n    function checkBusiness(address _bId) public view returns(uint){\r\n        uint flag = 0;\r\n        for (uint i = 1 ; i <= bCount; i++){\r\n            if (bList[i].bId == _bId) {\r\n                flag = bList[i].status;\r\n            }\r\n        }\r\n        return flag;\r\n    }\r\n\r\n    // Check if the migrant exists\r\n    function checkMigrant(address _mId) public view returns(bool){\r\n        bool flag = false;\r\n        for (uint i = 1 ; i <= mCount; i++){\r\n            if(mList[i].mId == _mId){\r\n                flag = true;\r\n                break;\r\n            }\r\n        }\r\n        return flag;\r\n    }\r\n\r\n    // Check if the local exists\r\n    function checkLocal(address _lId) public view returns(bool){\r\n        bool flag = false;\r\n        for (uint i = 1 ; i <= lCount; i++){\r\n            if(lList[i].lId == _lId){\r\n                flag = true;\r\n                break;\r\n            }\r\n        }\r\n        return flag;\r\n    }\r\n\r\n    // Get 'count' of healthcare institution\r\n    function institutionCount(address _hiId) public view returns(uint){\r\n        uint count = 0; \r\n        for (uint i = 1 ; i <= hiCount; i++){\r\n            if (hiList[i].hiId == _hiId) {\r\n                count = i;\r\n            }\r\n        }\r\n        return count;\r\n    }\r\n\r\n    // Get 'count' of business\r\n    function businessCount(address _bId) public view returns(uint){\r\n        uint count = 0; \r\n        for (uint i = 1 ; i <= bCount; i++){\r\n            if (bList[i].bId == _bId) {\r\n                count = i;\r\n            }\r\n        }\r\n        return count;\r\n    }\r\n\r\n    // MODELS AND THE RESPECTIVE MAPPINGS\r\n    // Model a Healthcare Institution\r\n    struct HealthcareInstitution{\r\n        address hiId;\r\n        string name;\r\n        string website;\r\n        uint status; // 1 = not verified yet, 2 = rejected, 3 = verified, 4 = deactivated\r\n    }\r\n    // Get All Healthcare Institutions\r\n    mapping (uint => HealthcareInstitution) public hiList;\r\n    uint public hiCount;\r\n\r\n    // Model a Business\r\n    struct Business{\r\n        address bId;\r\n        string name;\r\n        string website;\r\n        uint status; // 1 = not verified yet, 2 = rejected, 3 = verified, 4 = deactivated\r\n    }\r\n    // Get All Businesses\r\n    mapping (uint => Business) public bList;\r\n    uint public bCount;\r\n\r\n    // Model a Migrant\r\n    struct Migrant{\r\n        address mId;\r\n        string name;\r\n        string nationality;\r\n        string gender;\r\n        string identificationNo;\r\n        string dob;\r\n    }\r\n    // Get All Migrants\r\n    mapping (uint => Migrant) public mList;\r\n    // Get Migrant's details\r\n    mapping (address => Migrant) public mDetail;\r\n    uint public mCount;\r\n\r\n    // Model a Local\r\n    struct Local{\r\n        address lId;\r\n        string name;\r\n        string nationality;\r\n        string gender;\r\n        string identificationNo;\r\n        string dob;\r\n    }\r\n    // Get All Locals\r\n    mapping (uint => Local) public lList;\r\n    // Get Local's details\r\n    mapping (address => Local) public lDetail;\r\n    uint public lCount;\r\n\r\n\r\n    // Model transaction\r\n    struct Transaction{\r\n        string date;\r\n        string description;\r\n        uint amount;\r\n        bool types; // true if debit, false if credit\r\n    }\r\n    // Admin transaction history\r\n    mapping (address => mapping(uint => Transaction)) public transactionHistory;\r\n\r\n    // Transaction count\r\n    mapping (address => uint) public transactionCount;\r\n\r\n    // User's wallet balance\r\n    mapping (address => uint) public balance;\r\n\r\n    // Debit/Credit & Transaction history\r\n    function createTransaction(address _senderAddress, address _receiverAddress, string memory _date, string memory _description, uint _amount) public {\r\n        // Deduct/Credit balances\r\n        balance[_senderAddress] -= _amount;\r\n        balance[_receiverAddress] += _amount;\r\n        // Retrieve transaction count for sender/receiver\r\n        transactionCount[_senderAddress] += 1;\r\n        transactionCount[_receiverAddress] += 1;\r\n        uint sCount = transactionCount[_senderAddress];\r\n        uint rCount = transactionCount[_receiverAddress];\r\n        // Write transaction history for sender\r\n        transactionHistory[_senderAddress][sCount] = Transaction(_date, _description, _amount, false);\r\n        transactionHistory[_receiverAddress][rCount] = Transaction(_date, _description, _amount, true);\r\n    }\r\n\r\n    function sendMoney(address _address, string memory _date, string memory _description, uint _amount) public {\r\n        balance[_address] += _amount;\r\n        transactionCount[_address] += 1;\r\n        uint count = transactionCount[_address];\r\n        transactionHistory[_address][count] = Transaction(_date, _description, _amount, true);\r\n    }\r\n\r\n    function withdrawMoney(address _address, string memory _date, string memory _description, uint _amount) public {\r\n        balance[_address] -= _amount;\r\n        transactionCount[_address] += 1;\r\n        uint count = transactionCount[_address];\r\n        transactionHistory[_address][count] = Transaction(_date, _description, _amount, false);\r\n    }\r\n\r\n    // REGISTER/CREATION/ADD FUNCTIONS\r\n    // Register a Healthcare Institution\r\n    function registerHI(address _hiId, string memory _name, string memory _website) public {\r\n        uint flag = checkInstitution(_hiId);\r\n        if (flag == 0) {\r\n            hiCount++;\r\n            hiList[hiCount] = HealthcareInstitution(_hiId, _name, _website, 1);\r\n        } else {\r\n            uint count = institutionCount(_hiId);\r\n            hiList[count] = HealthcareInstitution(_hiId, _name, _website, 1);\r\n        }\r\n    }\r\n\r\n    // Register a Business\r\n    function registerBusiness(address _bId, string memory _name, string memory _website) public {\r\n        uint flag = checkBusiness(_bId);\r\n        if (flag == 0) {\r\n            bCount++;\r\n            bList[bCount] = Business(_bId, _name, _website, 1);\r\n        } else {\r\n            uint count = businessCount(_bId);\r\n            bList[count] = Business(_bId, _name, _website, 1);\r\n        }\r\n    }\r\n\r\n    // Register a Migrant\r\n    function registerMigrant(address _mId, string memory _name, string memory _nationality, string memory _gender, string memory _identificationNo, string memory _dob) public {\r\n        mCount++;\r\n        mList[mCount] = Migrant(_mId, _name, _nationality, _gender, _identificationNo, _dob);\r\n        mDetail[_mId] = Migrant(_mId, _name, _nationality, _gender, _identificationNo, _dob);\r\n    }\r\n\r\n    // Register a Local\r\n    function registerLocal(address _lId, string memory _name, string memory _nationality, string memory _gender, string memory _identificationNo, string memory _dob) public {\r\n        lCount++;\r\n        lList[lCount] = Local(_lId, _name, _nationality, _gender, _identificationNo, _dob);\r\n        lDetail[_lId] = Local(_lId, _name, _nationality, _gender, _identificationNo, _dob);\r\n    }\r\n\r\n\r\n    // GET FUNCTIONS\r\n    // Get All Healthcare Institutions\r\n    function getHiList(uint _hiCount) view public returns(address hiId, string memory name, string memory website) {\r\n        return(hiList[_hiCount].hiId, hiList[_hiCount].name, hiList[_hiCount].website);\r\n    }\r\n\r\n    // Get All Businesses\r\n    function getbList(uint _bCount) view public returns(address bId, string memory name, string memory website) {\r\n        return(bList[_bCount].bId, bList[_bCount].name, bList[_bCount].website);\r\n    }\r\n\r\n    // Get All Migrants\r\n    function getmList(uint _mCount) view public returns(address mId, string memory name, string memory nationality, string memory gender, string memory identificationNo, string memory dob) {\r\n        return(mList[_mCount].mId, mList[_mCount].name, mList[_mCount].nationality, mList[_mCount].gender, mList[_mCount].identificationNo, mList[_mCount].dob);\r\n    }\r\n\r\n    // Get Migrant's Details\r\n    function getmDetail(address _mId) view public returns(address mId, string memory name, string memory nationality, string memory gender, string memory identificationNo, string memory dob) {\r\n        return(mDetail[_mId].mId, mDetail[_mId].name, mDetail[_mId].nationality, mDetail[_mId].gender, mDetail[_mId].identificationNo, mDetail[_mId].dob);\r\n    }\r\n\r\n    // Get All Locals\r\n    function getlList(uint _lCount) view public returns(address lId, string memory name, string memory nationality, string memory gender, string memory identificationNo, string memory dob) {\r\n        return(lList[_lCount].lId, lList[_lCount].name, lList[_lCount].nationality, lList[_lCount].gender, lList[_lCount].identificationNo, lList[_lCount].dob);\r\n    }\r\n\r\n    // Get Local's Details\r\n    function getlDetail(address _lId) view public returns(address lId, string memory name, string memory nationality, string memory gender, string memory identificationNo, string memory dob) {\r\n        return(lDetail[_lId].lId, lDetail[_lId].name, lDetail[_lId].nationality, lDetail[_lId].gender, lDetail[_lId].identificationNo, lDetail[_lId].dob);\r\n    }\r\n\r\n    // Get transaction\r\n    function getTransaction(address _tId, uint _tCount) view public returns(string memory date, string memory description, uint amount, bool types) {\r\n        return(transactionHistory[_tId][_tCount].date, transactionHistory[_tId][_tCount].description, transactionHistory[_tId][_tCount].amount, transactionHistory[_tId][_tCount].types);\r\n    }\r\n\r\n\r\n    // Update functions\r\n    // Admin update healthcare institution status\r\n    function updateHI(address _hiId, string memory _name, string memory _website, uint _status) public {\r\n        uint count = institutionCount(_hiId);\r\n        hiList[count] = HealthcareInstitution(_hiId, _name, _website, _status);\r\n    }\r\n\r\n    // Admin update business status\r\n    function updateBusiness(address _bId, string memory _name, string memory _website, uint _status) public {\r\n        uint count = businessCount(_bId);\r\n        bList[count] = Business(_bId, _name, _website, _status);\r\n    }\r\n\r\n    constructor() public {\r\n        balance[msg.sender] = 500;\r\n    }\r\n}\r\n",
  "sourcePath": "C:\\Users\\luke\\Downloads\\IDEE\\IDEE\\contracts\\idee.sol",
  "compiler": {
    "name": "solc",
    "version": "0.8.13+commit.abaa5c0e.Emscripten.clang"
  },
  "schemaVersion": "3.4.11",
  "updatedAt": "2023-01-10T06:54:37.792Z",
  "networkType": "ethereum",
  "devdoc": {
    "kind": "dev",
    "methods": {},
    "version": 1
  },
  "userdoc": {
    "kind": "user",
    "methods": {},
    "version": 1
  }
}